:020000040800F2
:10000000B808002059010008F91800081F17000857
:1000100000000000000000000000000000000000E0
:10002000000000000000000000000000FD180008B3
:100030000000000000000000FB180008FF18000886
:100040006B010008000000006B0100086B01000854
:100050006B0100086B0100086B0100086B010008D0
:10006000000000006B010008990400086B01000803
:100070006B0100087D1900086B01000800000000FA
:100080008D1900086B010008000000006B010008DA
:100090006B0100086B0100086B0100086B01000890
:1000A0006B0100086B0100086B0100086D1E000861
:1000B0007D1E000800F002F800F03EF80CA030C8E9
:1000C000083824182D18A246671EAB4654465D46D4
:1000D000AC4201D100F030F87E460F3E0FCCB64660
:1000E0000126334200D0FB1AA246AB4633431847E1
:1000F000701E0000901E0000103A02D378C878C12C
:10010000FAD8520701D330C830C101D504680C6059
:10011000704700000023002400250026103A01D378
:1001200078C1FBD8520700D330C100D50B607047AF
:100130001FB51FBD10B510BD00F07BF91146FFF7CC
:10014000F7FF01F0DDFE00F093F903B4FFF7F2FFD3
:1001500003BC00F099F900000748804707480047B2
:10016000FEE7FEE7FEE7FEE7FEE7FEE70448054997
:10017000054A064B704700007B190008B5000008CF
:10018000B8020020B8080020B8040020B8040020FD
:10019000FEB5054610460C46184373D0AE468C4655
:1001A0000020AD1A01469C4167D366460027012412
:1001B0003D46B61A9D4102D313463A462124654670
:1001C00076462F04360C3E432D0CB61A9D4104D3BF
:1001D000150C1B042B4312041034654676462F067B
:1001E000360A3E432D0AB61A9D4104D3150E1B0252
:1001F0002B4312020834654676462F0736093E43E4
:100200002D09B61A9D4104D3150F1B012B43120172
:10021000241D65467646AF07B6083E43AD08B61ABC
:100220009D4104D3950F9B002B439200A41C65466F
:100230007646EF0776083E436D08B61A9D411AD3FD
:1002400092185B41641C16E00018764665464941E9
:10025000B71A9D410191009009D36046B11A9841A7
:100260008E468446009801990025401C6941DD07AF
:1002700052082A435B08641EE6D57246634603B003
:10028000F0BDFFE700200146C046C0462A4623468F
:10029000F5E701E004C0091F0429FBD28B0701D553
:1002A0000280801CC90700D00270704700290BD063
:1002B000C30702D00270401C491E022904D38307E1
:1002C00002D50280801C891EE3E70022EEE70022AF
:1002D000DFE7002203098B422CD3030A8B4211D3A0
:1002E00000239C464EE003460B433CD400224308C7
:1002F0008B4231D303098B421CD3030A8B4201D3B7
:1003000094463FE0C3098B4201D3CB01C01A52414E
:1003100083098B4201D38B01C01A524143098B429E
:1003200001D34B01C01A524103098B4201D30B0187
:10033000C01A5241C3088B4201D3CB00C01A5241AC
:1003400083088B4201D38B00C01A524143088B4271
:1003500001D34B00C01A5241411A00D2014652410A
:10036000104670475DE0CA0F00D04942031000D329
:100370004042534000229C4603098B422DD3030A7E
:100380008B4212D3FC22890112BA030A8B420CD38E
:10039000890192118B4208D3890192118B4204D3B7
:1003A00089013AD0921100E08909C3098B4201D337
:1003B000CB01C01A524183098B4201D38B01C01A71
:1003C000524143098B4201D34B01C01A52410309E8
:1003D0008B4201D30B01C01A5241C3088B4201D397
:1003E000CB00C01A524183088B4201D38B00C01A44
:1003F0005241D9D243088B4201D34B00C01A52411B
:10040000411A00D20146634652415B10104601D3A7
:100410004042002B00D54942704763465B1000D331
:10042000404201B50020C046C04602BD704770473B
:100430007047754600F024F8AE46050069465346FD
:10044000C008C000854618B020B5FFF78FFE60BC1D
:1004500000274908B6460026C0C5C0C5C0C5C0C5EE
:10046000C0C5C0C5C0C5C0C5403D49008D46704728
:1004700010B50446C046C0462046FFF766FE10BDD4
:10048000004870475802002001491820ABBEFEE723
:10049000260002007047000010B5024800F05CF82A
:1004A00010BD00007400002010B504460068054926
:1004B00040181421FFF70DFF800020640248E0631C
:1004C00010BD0000F8FFFDBF0000024072B6FEE75D
:1004D00030B5014620314B780022022B04D0042392
:1004E00083630A70012030BD03681C680E25AC438D
:1004F0001C6003681C68640864001C600123056CB0
:100500001C46C06BAC4044604B700A70002030BD8C
:1005100070B50024014620314A78022A03D0042114
:100520008163012416E0026813680E25AB43136053
:10053000026813685B085B0013600122056C1346B8
:10054000AB40C56B6B604A7000220A70416B00299A
:1005500000D08847204670BDF0B4C16B0D680168BB
:100560000C680422066C1346B3402B420DD063077F
:100570000BD50B689B0602D40B6893430B60016C90
:100580008A40C16B4A60C16A19E00227B74002463F
:100590002F4001232032002F15D0A70713D50C6858
:1005A000A40604D40C680A25AC430C605370036C99
:1005B00002219940C36B596000211170816A0029A2
:1005C00016D0F0BC08470827B7402F4210D02407A8
:1005D0000ED50C680E25AC430C60046C1946A14086
:1005E000C46B61608363537000211170016BE6E797
:1005F000F0BC704770B5040021D0022120462030A5
:1006000005464170226811680E48A3680140606881
:1006100026691843E3683343184363691843A369A1
:100620001843E3691843084310602046FFF73CFF76
:100630000021A163012068702970084670BD012067
:1006400070BD00000FC0FFFFF8B500230324012593
:10065000BAE02E469E40B44632407CD00E79B607B2
:10066000B60F012E01D0022E17D186682746B64656
:100670005E00B74000967646BE43B646CF68009E01
:10068000B74076463743876046686746BE430F7972
:10069000FF06FF0F9F40374347600E79F643B607CA
:1006A0000ED0C6682746B4465E00B646B7406646DA
:1006B000BE43B4468F687646B74066463743C76048
:1006C0000E79B607B60F022E14D1DE08B600361822
:1006D0000096366A5F07B446FE0E0F27B646B7404F
:1006E0006646BE43B4460F697646B7406646374312
:1006F000009E376206682746B4465E00B646B7409D
:100700006646BE430F79B446BF07BF0F7646B74073
:100710006646374307604E68B603B60F53D02D4F79
:10072000BE692E43BE61BE699F08F607F60F2A4ECA
:10073000BF00BE190096B6680F27B4469E07360F55
:10074000B646B7406646BE430927FF06B446B842E0
:1007500002D1002710E036E0204FB84201D1012736
:100760000AE01F4FB84201D1022705E01D4FB842F1
:1007700001D1032700E005277646B7406646374398
:10078000009EB760184EB6684F689643FF0200D5CA
:100790001643154FBE60FE684F689643BF0200D5F2
:1007A0001643114FFE607E684F689643BF0300D525
:1007B00016430D4F7E603E684F689643FF0300D599
:1007C0001643094A16605B1C0A681646DE4000D0D4
:1007D0003FE7F8BD0010024000000140000400485F
:1007E00000080048000C00480004014001488068EF
:1007F00070470000000000200248816802788918D4
:10080000816070470000002010B506480168102282
:1008100011430160032000F007F800F027F80020E2
:1008200010BD00000020024070B504460D4D7D2033
:100830002978C000FFF74DFD01460B480068FFF71F
:1008400048FD00F0EDFB002809D1042C07D200225E
:100850002146401E00F02AF800206C6070BD012087
:1008600070BD0000000000200C00002008B5084802
:100870008169012211438161816911400091C2693E
:1008800001040A43C261C0690840009008BD00002D
:1008900000100240002805DBC106C90E0120884077
:1008A000014908607047000000E100E010B501F068
:1008B00005FB10BDF8B505460068354CC00352D5A0
:1008C000E0690026C00007D4E16920040143E1612A
:1008D000E1690140012600912E480168C90510D444
:1008E0000168821511430160FFF780FF074604E0AD
:1008F000FFF77CFFC01B642824D826480068C00589
:10090000F6D5206A03273F02384020D06968394075
:1009100081421CD0206A226AB843012109040A439B
:100920002262226A8A4322622062C0070FD0FFF748
:100930005DFF009008E0FFF759FF0099411A164843
:10094000814201D90320F8BD206A8007F3D5206ACF
:100950006968B84308432062002E04D0E169012091
:1009600000078143E1612878C00705D0206BA968A2
:1009700080088000084320632878800605D5206B16
:1009800010218843E968084320630020F8BD000077
:10099000001002400070004088130000F8B50F46B8
:1009A000060059D03A4D2868C007C00FB84209D296
:1009B000286840084000384328602868C007C00FF6
:1009C000B84249D13068334C81070CD5400704D573
:1009D000606807210902084360606068F02188436D
:1009E000B168084360603078C00726D0706801287D
:1009F0000ED0216802280ED0890700292CDA616800
:100A00008908890001436160FFF7F0FE00900DE066
:100A100021688903F1E78901EFE7FFF7E7FE009915
:100A2000411A1D48814201D90320F8BD60680C219C
:100A30000840716889008842EFD12868C007C00F5C
:100A4000B8420BD92868400840003843286028681D
:100A5000C007C00FB84201D00120F8BD3078400770
:100A600006D56068072109028843F1680843606081
:100A700000F028F86168094A0906090F515CC8406E
:100A8000074908600320FFF7CFFE0020F8BD0000F3
:100A9000002002400010024088130000461F00089A
:100AA0000C0000200448054900684968044A4905CB
:100AB000490F515CC84070470C00002000100240F4
:100AC000561F000810B5104A51680C200B46034011
:100AD0000E48042B17D0082B15D18B020C4C1B0F82
:100AE000E45CD26A0A4B1207120F10339A5CC903F6
:100AF00005D500231946FFF74BFB214601E02046B0
:100B0000044901F0C3F910BD0010024000127A0040
:100B1000261F000800093D00FEB5040070D02078B3
:100B2000DC4DC0074AD068680007800F012807D055
:100B300068680007800F022809D16868C00306D5DD
:100B4000286880033AD560680028E7D036E06168FD
:100B5000012914D001208004002901D0052914D0D6
:100B60002A68012109048A432A602968814329608F
:100B70006068002816D0FFF739FE06460EE02868A8
:100B80000121090408432860F2E72968014329602C
:100B9000F5E7FFF72BFE801B64286ED828688003DA
:100BA000F7D50BE0FFF722FE064604E0FFF71EFE36
:100BB000801B6428F1D828688003F7D420780126A8
:100BC000800700283CDA68680007800F07D0686853
:100BD0000007800F022809D16868C00306D428687E
:100BE000800716D5E06801280AD112E0E0680028E5
:100BF000286816D030432860FFF7F8FD074605E067
:100C000043E1FFF7F3FDC01B0228C6D82868800720
:100C1000F7D52868F82188432169C900084328606E
:100C20000EE0400840002860FFF7E0FD074604E0C2
:100C3000FFF7DCFDC01B0228AFD828688007F7D477
:100C40002078000722D5E0690028686A0ED030437A
:100C50006862FFF7CBFD074604E0FFF7C7FDC01B46
:100C600002289AD8686A8007F7D50FE0400840004C
:100C70006862FFF7BBFD074605E09DE0FFF7B6FDA4
:100C8000C01B022889D8686A8007F7D42078042717
:100C90004007002860DA00200190E869C00008D40D
:100CA000E969B8060143E961E96901400120009161
:100CB000019079480168C90511D401688215114372
:100CC0000160FFF793FD009005E0FFF78FFD0099AD
:100CD000401A642870D870480068C005F5D5A0682F
:100CE00001280AD0002801D0052810D0286A400821
:100CF00040002862286AB84301E0286A304328622D
:100D0000A068002812D0FFF771FD00900AE0286A61
:100D100038432862F1E7FFF769FD0099411A5F48FF
:100D2000814249D8286A8007F5D50DE0FFF75EFDBE
:100D3000009006E0FFF75AFD0099411A574881429A
:100D40003AD8286A8007F5D40198002804D0E969C8
:100D5000012000078143E9612078C00635D560692C
:100D600001280CD0401D686B23D038436863686B42
:100D7000400840006863FFF739FD064622E0686BD3
:100D800038436863686B30436863FFF72FFD06469E
:100D900004E0FFF72BFD801B02285BD8686B8007FF
:100DA000F7D5686BF8218843A169C90008436863D7
:100DB0000BE0B8436863F4E74CE0FFF717FD801BD6
:100DC000022847D8686B8007F7D4206A00285ED0D5
:100DD00069680907890F022942D0012636060228D0
:100DE000286805D0B0432860FFF700FD044633E0D3
:100DF000B0432860FFF7FAFC074604E0FFF7F6FC73
:100E0000C01B022826D828688001F7D4E86AE16A66
:100E1000000900010843E862616AA06A0843696842
:100E20003D221204914308436860286830432860DB
:100E3000FFF7DCFC044604E0FFF7D8FC001B0228A7
:100E400008D828688001F7D521E0FFF7CFFC001B08
:100E5000022801D90320FEBD28688001F5D416E0E0
:100E60000128F8D06868E96A01221204636A024026
:100E70009A420AD10907E26A090F914205D10F216E
:100E800089040840A16A884201D00120FEBD0020EB
:100E9000FEBD0000001002400070004088130000FA
:100EA000F8B504000CD0606A002500280AD025613E
:100EB000656126464036A562707F002808D00BE0A9
:100EC0000120F8BD6168C81FFD38F2D0E561F0E788
:100ED0003577204600F05CF80222727720680168BE
:100EE0004023994301600723E1681B02994201D91D
:100EF000002001E0012000030F273F02B94202D089
:100F0000994200D0A562FF2361680533194021276B
:100F1000A368BF023B40194323691340227D194354
:100F2000D207D20F11430123A2695B021A40114379
:100F3000E26938231A401143226A80231A40114380
:100F4000A26A9B011A40114322681160A169042220
:100F5000090C1140626A10231A401143626B082386
:100F60001A4011430F23E2681B021A401143012269
:100F7000120310400143206841602068C16952108B
:100F80009143C1612566012070770020F8BD000003
:100F900070B586B0064614216846FFF798F91C49DB
:100FA0003068884231D11B498A69801402438A61C2
:100FB0008A69024005924A69400102434A614969CF
:100FC000002501400591A0200090022001900320FF
:100FD00003900920029569460495C006FFF734FB8B
:100FE0000E4C0D4820601020A56060602561656191
:100FF000A5618020E561E0602046FFF7FBFA00284C
:1010000001D0FFF763FA7465666206B070BD000038
:101010000030014000100240300002407400002007
:10102000094910B5401E884201D9012010BD074C66
:1010300060610321081F00F041FF0020A06107202C
:101040002061002010BD0000FFFFFF0000E000E075
:1010500070477047F0B502462032137F012B1ED037
:10106000012515770223537706687468B3687027E3
:10107000BC430F682743776000680A4CA04205D044
:10108000094CA04202D0094CA04204D180244968F6
:10109000A34319438160557700201077F0BD0220EB
:1010A000F0BD0000002C0140000400400040014061
:1010B00070B5040005D025462035687F002802D091
:1010C00006E0012070BD00202877204600F014F8CB
:1010D00002206877211D206800F060FC0120403468
:1010E000A071A877E87720706070A070E070207120
:1010F00060716877002070BD08B5134A0168134815
:1011000091420DD18269C1140A4382618069002233
:101110000840009011460D20FFF7C8FB0D200FE09E
:101120000B4A91420ED1C26902210A43C261C069D1
:1011300000220840009011461020FFF7B7FB102056
:10114000FFF7A8FB08BD0000002C01400010024082
:1011500000040040F8B5054604462035287F0026E7
:10116000012817D00120287702206877226890682C
:101170007727FF23B8431B029843906008685028E4
:1011800038D00EDC20284FD006DC00284CD01028A8
:101190001ED149E00220F8BD302845D0402817D1A3
:1011A0003AE060282ED0702819D001221203801A4C
:1011B0000FD090420CD1CB684A688968206800F053
:1011C00039FC20688168012292031143816000E0AC
:1011D000012601206877002028773046F8BDCB68CB
:1011E0004A688968206800F025FC216888683843CF
:1011F0008860EEE7CA684968206800F02EFC50213C
:10120000206806E0CA684968206800F037FC602161
:10121000206800F01AFCDCE7CA684968206800F022
:101220001CFC40212068F4E7226801461046F0E7E4
:101230007047F8B504460068C66805690027A90725
:10124000002913DAB10711D5F91E016101202077B9
:10125000206880698007204602D0FFF7E9FF04E09C
:1012600000F07BF8204600F079F82777680716D55C
:10127000700714D504202168C0430861022020773C
:10128000206880698005800F204602D0FFF7D0FFDC
:1012900004E000F062F8204600F060F827772807A5
:1012A00015D5300713D508202168C04308610420F4
:1012B00020772068C0698007204602D0FFF7B8FF7A
:1012C00004E000F04AF8204600F048F82777E806E6
:1012D00016D5F00614D510202168C04308610820F7
:1012E00020772068C0698005800F204602D0FFF774
:1012F0009FFF04E000F031F8204600F02FF8277738
:10130000E80708D0F00706D001202168C043086133
:10131000204600F024F8280608D5300606D580209F
:101320002168C04308612046FFF792FE680608D591
:10133000700606D540202168C0430861204600F0B1
:101340000FF8A80608D5B00606D520202168C043AE
:1013500008612046FFF77DFEF8BD70477047704773
:101360007047704770470000F8B502680446D069BE
:10137000116893689E4D06462E4025468035002E06
:1013800071D09C4FDE07F60F0F4037437ED0C70762
:1013900006D0CF0504D5012717626A683A436A6010
:1013A000820708D5DA0706D0276802223A626A68FF
:1013B00004273A436A60420708D5DA0706D0236853
:1013C00004221A626A6802231A436A60020709D576
:1013D00020220A40324305D0236808221A626B6833
:1013E00013436B60020509D54A0107D50122236822
:1013F000D2021A626B68202213436B606A68002A6B
:1014000039D0800606D5880604D5A16E002901D002
:1014100020468847686821688968490602D42821DF
:1014200008422DD0204600F00DFC21688868400657
:1014300022D5EFF31080012282F310888A684023BE
:101440009A438A6080F31088606F002814D06A493C
:101450004163606FFFF75CF800280CD0606F416B50
:1014600008E000E012E0830610D58B060ED5A16ED1
:10147000A3E020468847F8BD2046FFF773FFF8BD7C
:101480002046FFF76FFF00206860F8BD236E012B38
:101490007ED1C3067CD5CB067AD510231362226891
:1014A0009068264640064036002848DA616F086892
:1014B00040680004000CE8D0378B8742E5D9708380
:1014C0008869202834D0EFF31080012181F310883F
:1014D00011681F01B943116080F31088EFF3108089
:1014E000012181F3108821688A68520852008A60BD
:1014F00080F31088EFF31080012181F310882168B8
:101500008A684027BA438A6080F3108820202860C8
:1015100000202066EFF31080012181F310882168FC
:101520000A689A430A6080F31088606FFEF7D0FF64
:1015300002206066308B718B401A81B234E0308BB0
:10154000718B401A81B2708B00289ED000299CD0EC
:10155000EFF31080012686F310881668FF272137E5
:10156000BE43166080F31088EFF31080012282F3EF
:1015700010882268966876087600966080F3108856
:101580002020286000202066A066EFF3108000E095
:101590000EE0012282F31088226815689D431560D1
:1015A00080F31088022060662046FFF7DAFEF8BD5F
:1015B000030606D50B0604D5E16E002900D058E7D6
:1015C000F8BD4006FCD54806FAD52046EFF3108159
:1015D000012383F31088146840239C43146081F333
:1015E00010882021C1670021C16600F097F8F8BD7E
:1015F0000F08000020010004311C000810B5040091
:1016000003D0E06F002802D007E0012010BD0021C8
:1016100078200155204600F027F82420E067206854
:101620000168490849000160606A002802D020462C
:1016300000F037FA204600F035FB0128E6D020689C
:1016400041680122D20291434160206881680822EA
:1016500091438160206801680122114301602046A6
:1016600000F084FA10BD0000F0B587B004461421E4
:101670006846FEF72CFE264F0121266800222548E9
:101680004904022303240125BE421DD18769CE10DF
:101690003743876187693740059746690E4346613E
:1016A00040690193084005906002009002AE34C684
:1016B00009206946C006FEF7C7FF002211461B201D
:1016C000FFF7F4F81B201EE0134FBE421DD1C66980
:1016D0000E43C661C6690E40059646690E434661D3
:1016E00040690193084005900C20009002AE34C67A
:1016F00009206946C006FEF7A7FF002211461C20FC
:10170000FFF7D4F81C20FFF7C5F807B0F0BD0000C4
:101710000038014000100240004400407047FEE7DE
:1017200008B50848416901221143416140691040F0
:101730000022009011460A20FFF7B8F80A20FFF7B0
:10174000A9F808BD0010024008B50548426901210A
:1017500049040A43426140690840009008BD000006
:101760000010024010B510480E490160FF210531FC
:101770004160002101228160D2020161C2604161A9
:10178000C161016292104162826181620722C2627C
:10179000016308214163FFF783FB002801D0FEF7B6
:1017A00095FE10BD003001401000002010B586B03D
:1017B0000024009416491748019402940394049459
:1017C000059412C0046084601349C46041608021A4
:1017D00001610838FFF76CFC002801D0FEF776FEA7
:1017E00001200003009069460A48FFF7B3FC002877
:1017F00001D0FEF76BFE049404A906480594FFF798
:1018000029FC002801D0FEF761FE06B010BD0000E3
:10181000002C0140B8000020FFFF000010B586B08A
:1018200000240094154916480194029403940494EA
:10183000059412C004608460124904614160083854
:10184000FFF736FC002801D0FEF740FE0120000320
:10185000009069460A48FFF77DFC002801D0FEF79A
:1018600035FE049404A906480594FFF7F3FB00280D
:1018700001D0FEF72BFE06B010BD000000040040B2
:1018800000010020FFFF000010B50C480A4901606C
:10189000E1214902416000218160C16001618161F3
:1018A000C1610C22016242614162FFF7A7FE00287C
:1018B00001D0FEF70BFE10BD0038014048010020AA
:1018C00010B50C480A490160E1214902416000213C
:1018D0008160C16001618161C1610C22016242616C
:1018E0004162FFF78BFE002801D0FEF7EFFD10BD2F
:1018F00000440040D0010020FEE77047704710B55B
:10190000FEF77AFF10BD70B594B030216846FEF73F
:10191000DEFC00240E9413941020099402250490F8
:101920000D940F94032012940126009580040C94CA
:10193000109403960A90119408950B946846FFF74B
:10194000EBF8002801D072B6FEE707200C900E9449
:1019500000210D950F940CA8FFF720F8002801D066
:1019600072B6FEE710A810961294FEF7A3FF0028A7
:1019700001D072B6FEE714B070BD704710B50248D2
:10198000FFF757FC10BD0000B800002010B502485A
:10199000FFF74FFC10BD000000010020F0B5026809
:1019A0001E4B1F4C984201D0A04203D17025AA4380
:1019B0004D682A431B4D1C4E1C4F98420AD0A04232
:1019C00008D01B4CA04205D0A84203D0B04201D0A1
:1019D000B84205D11446032212029443CA68224336
:1019E0008024A2434C69224302608A68C2620A686A
:1019F0008262984205D0A84203D0B04201D0B842DA
:101A000001D109690163012141610169C90703D05D
:101A10000169490849000161F0BD0000002C014046
:101A200000040040004001400044014000480140E3
:101A30000020004030B58468FF252D021B021343AF
:101A4000AC430B432343836030BD826870239A43C9
:101A50000A4307210A438260704730B5036A046A6B
:101A60006408640004628469F025AC4312012243D7
:101A70000A24A3430B438261036230BD30B5046A7C
:101A8000036A1025AB43036283690F252D031203FC
:101A9000AB431A43A0239C430901214382610162A5
:101AA00030BD10B5818C090707D501684A6801234C
:101AB000DB039A43436B1A434A60818CC90707D002
:101AC00001684A6801235B049A43836A1A434A60A7
:101AD000818C890707D501684A6801231B049A4352
:101AE000C36A1A434A60818C490707D501684A686E
:101AF00001239B049A43036B1A434A60818CC906F5
:101B000007D50268916801231B039943836B19432E
:101B10009160818C890607D501688A6801235B037F
:101B20009A43C36B1A438A60818C490612D50368B5
:101B30005A6801210905046C8A4322435A60026CE9
:101B40008A4207D10268516803235B059943436CBD
:101B500019435160818C090607D501684A68012341
:101B6000DB04806C9A4302434A6010BDFEB5074611
:101B70000025803704467D60FEF738FE019020681E
:101B80000068264600076036002819DA27480090CA
:101B90000121002249052046019B00F01BF9002885
:101BA0000ED0EFF31080012181F3108821680A68BC
:101BB00080239A430A6080F310882020E06729E0A0
:101BC00020680068400728D51848009001210022AD
:101BD00089052046019B00F0FDF800281DD0EFF399
:101BE0001080012181F3108821680A68FF232133C6
:101BF0009A430A6080F31088EFF31080012181F38B
:101C0000108821688A68520852008A6080F3108820
:101C10002020386035760320FEBD2020E067386044
:101C20002566656635760020FEBD0000FFFFFF01DA
:101C300010B5406A0022014640314A834A82FFF7CC
:101C400091FB10BD10B5EFF31081012282F31088D3
:101C500002681368FF242134A343136081F31088C2
:101C6000EFF31081012282F31088026893685B0809
:101C70005B00936081F31088016E01290BD1EFF3B3
:101C80001081012282F31088026813681024A34394
:101C9000136081F31088202280210A500021016600
:101CA000816610BD70B5044680682169E269084309
:101CB0006169002511432268084311683F4B1940B0
:101CC0000143116021684868032212039043E268CF
:101CD00010434860A169206A084321688A680B2381
:101CE0001B029A4302438A6035492068884210D11A
:101CF0003448006B8007800F0ED0012805D00228E1
:101D000005D003280AD1022109E0042107E00821B7
:101D100005E02D49884201D1002100E01021012079
:101D2000E369C003294A2A4E834222D1002906D002
:101D3000022907D0042907D0082935D108E0FEF789
:101D4000B1FE03E0104603E0FEF7BCFE002830D0F1
:101D5000616840004A088018FEF7BBFA0146103956
:101D6000B14221D81A49491C01400007400F0843DD
:101D70001DE0002906D0022907D0042907D0082930
:101D800012D108E0FEF78EFE03E0104603E0FEF7F6
:101D900099FE00280DD061684A081018FEF799FADC
:101DA00001461039B14201D9012502E080B2216813
:101DB000C8600020A066E066284670BDF369FFFF9A
:101DC00000380140001002400044004000127A0038
:101DD000EFFF0000FFB506468036054681B00F468E
:101DE0000446603534E00A98401C31D0FEF7FEFC12
:101DF0000499411A0A98814218D8002816D0206800
:101E00000168490724D5802F22D0402F20D0C169F6
:101E1000C94309070CD4082707622046FFF712FFC1
:101E2000776000202876012005B0F0BD0320FBE795
:101E3000C069C04300050BD401202168C0020862BC
:101E40002046FFF7FFFE2020706000202876EDE797
:101E50002068C1693846884305D000210398814233
:101E6000C1D00020E0E70121F8E7000010B50248EA
:101E7000FFF77AFA10BD00004801002010B50248B3
:101E8000FFF772FA10BD0000D0010020F8B5040C75
:101E90008BB2264682B25E430D0C1046370C584377
:101EA000360480190021794116466E43370C3604FA
:101EB0008019794126466E438919F8BD8307FF22B0
:101EC000DB0E9A408907090E9940002808DB830839
:101ED00009489B001B181868904308431860704716
:101EE0000007000F0838830804489B001B18D869B6
:101EF00090430843D861704700E400E000ED00E043
:101F0000FEF782FCFFF7FFFCFFF71EFCFFF708FC63
:101F1000FFF728FCFFF7B8FCFFF7D2FCFFF746FC01
:101F2000FFF77CFCFEE702030405060708090A0B1D
:101F30000C0D0E0F10100102030405060708090A14
:101F40000B0C0D0E0F10000000000000000001023D
:101F50000304060708090000000001020304000052
:101F6000801F00080000002010000000F80000089A
:101F7000901F000810000020A808000014010008AD
:101F800001000000040000000000000000127A00C0
:04000005080000B53A
:00000001FF
